:100000000C942A000C94C3010C94EC010C9415027E
:100010000C9472040C949B040C9447000C942004E0
:100020000C9447000C9449040C94CE030C94F703F1
:100030000C9447000C9447000C9447000C94470024
:100040000C9447000C9447000C9447000C94470014
:100050000C94470011241FBECFE5D8E0DEBFCDBF12
:1000600010E0A0E6B0E0E0EBFAE002C005900D92EF
:10007000AA36B107D9F720E0AAE6B0E001C01D9288
:10008000AF36B207E1F70E94BC010C9456050C9400
:10009000000010926100089580916A008F5F809344
:1000A0006A00089560E081E40E94AF0161E081E4AC
:1000B0000E94AF0162E081E40E94AF0160E082E44F
:1000C0000E94AF0161E082E40E94AF0162E082E43D
:1000D0000E94AF010895CF93DF9300D0CDB7DEB774
:1000E0007894198281E08A83CE0101960E943E02B3
:1000F00089E490E00E947C0240E064E482E00E9497
:10010000810260E081E40E94A10161E081E40E943B
:10011000A10162E081E40E94A10160E082E40E940A
:10012000A10161E082E40E94A10162E082E40E94F8
:10013000A1010F900F90DF91CF910895CF93DF939E
:10014000CDB7DEB728970FB6F894DEBF0FBECDBF90
:10015000789488E0E2E6F0E0DE01119601900D92DD
:100160008A95E1F78CE490E00E94C404CE010196E8
:100170000E94C90480916A008130E1F710926A0000
:100180000E943C0528960FB6F894DEBF0FBECDBF87
:10019000DF91CF910895CF930E945200809160002B
:1001A000882369F010C060E081E40E94A80161E04A
:1001B00082E40E94A8010E949E00CF5F01C0C0E0BF
:1001C000CA3088F328C08150823028F510C061E021
:1001D00081E40E94A80162E081E40E94B60162E02D
:1001E00082E40E94B6010E949E00CF5F01C0C0E081
:1001F000CA3068F30E945200C0E00BC060E081E4A6
:100200000E94A80161E082E40E94A8010E949E0071
:10021000CF5FCA3098F30E945200C0E00FC062E086
:1002200081E40E94B60160E081E40E94A80162E0DE
:1002300082E40E94B6010E949E00CF5FCA3078F32C
:1002400081E080936100CF910895CF930E94520086
:1002500081E080936000C0E00CC080916100882341
:1002600009F461C060E082E40E94A8010E949E003F
:10027000CF5FCA3090F380916100882309F453C0A6
:1002800082E080936000C0E00CC080916100882310
:1002900009F449C062E082E40E94B6010E949E0017
:1002A000CF5FCA3090F30E94520010926000C0E00D
:1002B0000BC0809161008823B1F161E082E40E946B
:1002C000A8010E949E00CF5FCA3098F30E9452009E
:1002D00080916100882339F182E080936000C0E062
:1002E0000BC0809161008823F1F062E082E40E94FB
:1002F000B6010E949E00CF5FCA3098F30E94520060
:1003000010926000C0E00BC080916100882359F01A
:1003100061E082E40E94A8010E949E00CF5FCA3083
:1003200098F30E945200CF91089580916100882334
:1003300029F08130D1F70E942501F7CF0E94CB0030
:10034000F4CF982F862F41E0692F0E9481020895F3
:10035000982F862F41E0692F0E9408030895982F57
:10036000862F40E0692F0E9408030895982F862F5A
:10037000692F0E948F0308950E946B000E949501CF
:1003800080E090E008951F920F920FB60F92112413
:100390002F933F934F935F936F937F938F939F938D
:1003A000AF93BF93EF93FF93E0916B00F0916C00DC
:1003B000309709F00995FF91EF91BF91AF919F910F
:1003C0008F917F916F915F914F913F912F910F90FE
:1003D0000FBE0F901F9018951F920F920FB60F929D
:1003E00011242F933F934F935F936F937F938F933A
:1003F0009F93AF93BF93EF93FF93E0916B00F091C6
:100400006C00309709F00995FF91EF91BF91AF9182
:100410009F918F917F916F915F914F913F912F911C
:100420000F900FBE0F901F9018951F920F920FB64E
:100430000F9211242F933F934F935F936F937F936A
:100440008F939F93AF93BF93EF93FF93E0916B00D4
:10045000F0916C00309709F00995FF91EF91BF91F1
:10046000AF919F918F917F916F915F914F913F914C
:100470002F910F900FBE0F901F901895FC01908147
:100480009130D1F018F0923069F108958181813076
:1004900021F485B7836085BF0BC0811104C085B787
:1004A000826085BF05C0823019F485B7816085BF41
:1004B0008BB780648BBF08958181813021F485B72B
:1004C0008C6085BF0BC0811104C085B7886085BF73
:1004D00005C0823019F485B7846085BF8BB780680A
:1004E0008BBF08958181813019F484B7806484BF03
:1004F0008BB780628BBF089590936C0080936B00E4
:100500000895623451F118F4613441F00895633470
:1005100009F442C0643409F45DC0089541110DC06E
:100520004AB321E030E0B90102C0660F771F8A9517
:10053000E2F7CB0184238ABB0895413009F067C0FC
:100540004AB321E030E0B90102C0660F771F8A95F7
:10055000E2F7CB01842B8ABB089541110DC047B34C
:1005600021E030E0B90102C0660F771F8A95E2F7FB
:10057000CB01842387BB0895413009F048C047B3BD
:1005800021E030E0B90102C0660F771F8A95E2F7DB
:10059000CB01842B87BB089541110DC044B321E0EA
:1005A00030E0B90102C0660F771F8A95E2F7CB01F0
:1005B000842384BB0895413051F544B321E030E0F9
:1005C000B90102C0660F771F8A95E2F7CB01842B31
:1005D00084BB089541110DC041B321E030E0B90161
:1005E00002C0660F771F8A95E2F7CB01842381BB97
:1005F0000895413061F441B321E030E0B90102C017
:10060000660F771F8A95E2F7CB01842B81BB089593
:10061000623451F118F4613441F00895633409F4FF
:1006200042C0643409F45DC0089541110DC04BB35C
:1006300021E030E0B90102C0660F771F8A95E2F72A
:10064000CB0184238BBB0895413009F067C04BB3C5
:1006500021E030E0B90102C0660F771F8A95E2F70A
:10066000CB01842B8BBB089541110DC048B321E011
:1006700030E0B90102C0660F771F8A95E2F7CB011F
:10068000842388BB0895413009F048C048B321E075
:1006900030E0B90102C0660F771F8A95E2F7CB01FF
:1006A000842B88BB089541110DC045B321E030E093
:1006B000B90102C0660F771F8A95E2F7CB01842348
:1006C00085BB0895413051F545B321E030E0B901D3
:1006D00002C0660F771F8A95E2F7CB01842B85BB9A
:1006E000089541110DC042B321E030E0B90102C0CC
:1006F000660F771F8A95E2F7CB01842382BB0895AA
:10070000413061F442B321E030E0B90102C0660F2C
:10071000771F8A95E2F7CB01842B82BB0895623460
:10072000B1F018F4613431F008956334E9F06434C1
:1007300041F108954BB321E030E0B90102C0660FEA
:10074000771F8A95E2F7CB0184278BBB089548B3C6
:1007500021E030E0B90102C0660F771F8A95E2F709
:10076000CB01842788BB089545B321E030E0B9016F
:1007700002C0660F771F8A95E2F7CB01842785BBFD
:10078000089542B321E030E0B90102C0660F771F3F
:100790008A95E2F7CB01842782BB08951F920F92BE
:1007A0000FB60F9211242F933F934F935F936F9344
:1007B0007F938F939F93AF93BF93EF93FF93E091BA
:1007C0006D00F0916E00309709F00995FF91EF915F
:1007D000BF91AF919F918F917F916F915F914F9159
:1007E0003F912F910F900FBE0F901F9018951F9261
:1007F0000F920FB60F9211242F933F934F935F9355
:100800006F937F938F939F93AF93BF93EF93FF93D8
:10081000E0916D00F0916E00309709F00995FF911D
:10082000EF91BF91AF919F918F917F916F915F9168
:100830004F913F912F910F900FBE0F901F901895E1
:100840001F920F920FB60F9211242F933F934F9345
:100850005F936F937F938F939F93AF93BF93EF9328
:10086000FF93E0916D00F0916E00309709F00995CB
:10087000FF91EF91BF91AF919F918F917F916F9178
:100880005F914F913F912F910F900FBE0F901F904E
:1008900018951F920F920FB60F9211242F933F932A
:1008A0004F935F936F937F938F939F93AF93BF9378
:1008B000EF93FF93E0916D00F0916E00309709F097
:1008C0000995FF91EF91BF91AF919F918F917F918A
:1008D0006F915F914F913F912F910F900FBE0F90AD
:1008E0001F9018951F920F920FB60F9211242F93FD
:1008F0003F934F935F936F937F938F939F93AF93A8
:10090000BF93EF93FF93E0916D00F0916E003097ED
:1009100009F00995FF91EF91BF91AF919F918F9150
:100920007F916F915F914F913F912F910F900FBEEB
:100930000F901F9018951F920F920FB60F921124CF
:100940002F933F934F935F936F937F938F939F93D7
:10095000AF93BF93EF93FF93E0916D00F0916E0022
:10096000309709F00995FF91EF91BF91AF919F9159
:100970008F917F916F915F914F913F912F910F9048
:100980000FBE0F901F90189590936E0080936D008E
:100990000895FC018581813029F120F0823009F42D
:1009A0004BC00895808182BF83B7806883BF8681F2
:1009B000813049F482818CBF83B7886083BF89B757
:1009C000826089BF08C0811106C083B7877F83BF5B
:1009D00089B7816089BF93B78481987F8770892B9D
:1009E00083BF0895808191819DBD8CBD8FB58C6042
:1009F0008FBD8681813071F4828193819BBD8ABDD8
:100A00008EB588608EBD8EB58F7E8EBD89B78061B4
:100A100089BF0BC0811109C08EB5877F8EBD8EB591
:100A20008F7E8EBD89B7846089BF9EB58481987F93
:100A30008770892B8EBD0895808184BD85B58068BF
:100A400085BD8681813049F4828183BD85B588600A
:100A500085BD89B7806889BF08C0811106C083B78A
:100A6000877F83BF89B7806489BF95B58481987F6C
:100A70008770892B85BD0895813051F018F0823040
:100A800079F0089513BE1CBE89B78C7F89BF089585
:100A90001FBC1EBC1BBC1ABC89B78B7E89BF0895C6
:100AA00015BC13BC89B78F7389BF0895F894FFCF25
:0A0AB00001010000E9010501010049
:00000001FF
