:100000000C942A000C9402010C942B010C945401C2
:100010000C9447000C9447000C9447000C94470044
:100020000C9447000C9447000C9447000C94470034
:100030000C9447000C9447000C9447000C94470024
:100040000C9447000C9447000C9447000C94470014
:100050000C94470011241FBECFE5D8E0DEBFCDBF12
:1000600010E0A0E6B0E0E0EAF5E002C005900D92F5
:10007000A236B107D9F720E0A2E6B0E001C01D9298
:10008000A436B207E1F70E94FB000C94CE020C9458
:10009000000080916100813019F410926100089590
:1000A00081E080936100089560E081E40E94F400A3
:1000B00061E081E40E94F40062E081E40E94F400C7
:1000C00060E082E40E94F40061E082E40E94F400B7
:1000D00062E082E40E94F4000895CF93DF9300D0A1
:1000E000CDB7DEB77894198281E08A83CE0101967C
:1000F0000E947D0189E490E00E94BB0140E064E43D
:1001000082E00E94C00160E081E40E94E60061E0BC
:1001100081E40E94E60062E081E40E94E60060E083
:1001200082E40E94E60061E082E40E94E60062E070
:1001300082E40E94E6000F900F90DF91CF91089526
:100140000E94540080916100882389F18130C1F7B9
:1001500060E082E40E94ED0061E081E40E94ED0035
:1001600081E08093600062E082E40E94ED0062E042
:1001700081E40E94ED0082E0809360000E945400C0
:100180001092600061E082E40E94ED0060E081E492
:100190000E94ED0060E082E40E94ED0061E082E4F4
:1001A0000E94ED0062E082E40E94ED00C9CF0E944F
:1001B000540060E081E40E94ED0061E081E40E946F
:1001C000ED0062E081E40E94ED00BACF982F862F07
:1001D00041E0692F0E94C0010895982F862F41E0C9
:1001E000692F0E9447020895982F862F40E0692FBB
:1001F0000E94470208950E946D000E94A00080E0C6
:1002000090E008951F920F920FB60F9211242F9332
:100210003F934F935F936F937F938F939F93AF938E
:10022000BF93EF93FF93E0916200F09163003097EA
:1002300009F00995FF91EF91BF91AF919F918F9137
:100240007F916F915F914F913F912F910F900FBED2
:100250000F901F9018951F920F920FB60F921124B6
:100260002F933F934F935F936F937F938F939F93BE
:10027000AF93BF93EF93FF93E0916200F09163001F
:10028000309709F00995FF91EF91BF91AF919F9140
:100290008F917F916F915F914F913F912F910F902F
:1002A0000FBE0F901F9018951F920F920FB60F92CE
:1002B00011242F933F934F935F936F937F938F936B
:1002C0009F93AF93BF93EF93FF93E0916200F09100
:1002D0006300309709F00995FF91EF91BF91AF91BD
:1002E0009F918F917F916F915F914F913F912F914E
:1002F0000F900FBE0F901F901895FC0190819130C8
:10030000D1F018F0923069F108958181813021F4A3
:1003100085B7836085BF0BC0811104C085B782603B
:1003200085BF05C0823019F485B7816085BF8BB762
:1003300080648BBF08958181813021F485B78C6002
:1003400085BF0BC0811104C085B7886085BF05C01B
:10035000823019F485B7846085BF8BB780688BBF06
:1003600008958181813019F484B7806484BF8BB78C
:1003700080628BBF0895909363008093620008951C
:10038000623451F118F4613441F00895633409F492
:1003900042C0643409F45DC0089541110DC04AB3F0
:1003A00021E030E0B90102C0660F771F8A95E2F7BD
:1003B000CB0184238ABB0895413009F067C04AB35A
:1003C00021E030E0B90102C0660F771F8A95E2F79D
:1003D000CB01842B8ABB089541110DC047B321E0A6
:1003E00030E0B90102C0660F771F8A95E2F7CB01B2
:1003F000842387BB0895413009F048C047B321E00A
:1004000030E0B90102C0660F771F8A95E2F7CB0191
:10041000842B87BB089541110DC044B321E030E027
:10042000B90102C0660F771F8A95E2F7CB018423DA
:1004300084BB0895413051F544B321E030E0B90167
:1004400002C0660F771F8A95E2F7CB01842B84BB2D
:10045000089541110DC041B321E030E0B90102C05F
:10046000660F771F8A95E2F7CB01842381BB08953D
:10047000413061F441B321E030E0B90102C0660FC0
:10048000771F8A95E2F7CB01842B81BB08956234F4
:1004900051F118F4613441F00895633409F442C015
:1004A000643409F45DC0089541110DC04BB321E0DF
:1004B00030E0B90102C0660F771F8A95E2F7CB01E1
:1004C00084238BBB0895413009F067C04BB321E012
:1004D00030E0B90102C0660F771F8A95E2F7CB01C1
:1004E000842B8BBB089541110DC048B321E030E04F
:1004F000B90102C0660F771F8A95E2F7CB0184230A
:1005000088BB0895413009F048C048B321E030E08D
:10051000B90102C0660F771F8A95E2F7CB01842BE1
:1005200088BB089541110DC045B321E030E0B90109
:1005300002C0660F771F8A95E2F7CB01842385BB43
:100540000895413051F545B321E030E0B90102C0D2
:10055000660F771F8A95E2F7CB01842B85BB089540
:1005600041110DC042B321E030E0B90102C0660F75
:10057000771F8A95E2F7CB01842382BB089541302F
:1005800061F442B321E030E0B90102C0660F771F89
:100590008A95E2F7CB01842B82BB0895F894FFCFB4
:0205A000010157
:00000001FF
