S01C0000547261666669634C696768747350726F6A6563742E7372656307
S11300000C942A000C94AF010C94D8010C940102B6
S11300100C945E040C9487040C9447000C940C0418
S11300200C9447000C9435040C94BA030C94E30329
S11300300C9447000C9447000C9447000C94470020
S11300400C9447000C9447000C9447000C94470010
S11300500C94470011241FBECFE5D8E0DEBFCDBF0E
S113006010E0A0E6B0E0E8E8FAE002C005900D92E6
S1130070A237B107D9F720E0A2E7B0E001C01D9292
S1130080A837B207E1F70E94A8010C9442050C942A
S11300900000109261000895809172008F5F809338
S11300A07200089560E081E40E94670161E081E4E8
S11300B00E94670162E081E40E94670160E082E4DB
S11300C00E94670161E082E40E94670162E082E4C9
S11300D00E9467010895CF93DF9300D0CDB7DEB7B8
S11300E07894198281E08A83CE0101960E942A02C3
S11300F089E490E00E94680240E064E482E00E94A7
S11301006D0260E081E40E94590161E081E40E9493
S1130110590162E081E40E94590160E082E40E9496
S1130120590161E082E40E94590162E082E40E9484
S113013059010F900F90DF91CF910895CF93DF93E2
S1130140CDB7DEB728970FB6F894DEBF0FBECDBF8C
S1130150789488E0E2E6F0E0DE01119601900D92D9
S11301608A95E1F78CE490E00E94B004CE010196F8
S11301700E94B504809172008130E1F71092720000
S11301800E94280528960FB6F894DEBF0FBECDBF97
S1130190DF91CF9108950E945200809160008111F7
S11301A00BC060E081E40E94600161E082E40E948F
S11301B060010E949E001DC081508230D0F461E035
S11301C081E40E94600162E081E40E949B0162E09C
S11301D082E40E949B010E949E000E94520060E003
S11301E081E40E94600161E082E40E9460010E9457
S11301F09E000E94520062E081E40E949B0160E044
S113020081E40E94600162E082E40E949B010E94FA
S11302109E0081E080936100189508950E94520029
S113022060E082E40E94600161E081E40E94600178
S113023081E08093600080916100882339F10E94FD
S11302409E0080916100882309F162E082E40E94AB
S11302509B0162E081E40E949B0182E08093600044
S11302600E949E000E94520080916100882371F0D8
S11302701092600061E082E40E94600160E081E429
S11302800E9460010E949E000E9452000895809185
S11302906100882329F08130D1F70E940E01F7CF45
S11302A00E94CB00F4CF809173008F5F8093730022
S11302B00895982F862F41E0692F0E946D020895BA
S11302C0982F862F41E0692F0E94F4020895982FF9
S11302D0862F40E0692F0E94F4020895CF93DF93A4
S11302E0CDB7DEB728970FB6F894DEBF0FBECDBFEB
S11302F0789488E0EAE6F0E0DE01119601900D9230
S11303008A95E1F783E591E00E94B004CE0101965D
S11303100E94B504809173008130E1F7109273005C
S11303200E94280528960FB6F894DEBF0FBECDBFF5
S1130330DF91CF910895CF93DF93D82FC62F0E94DA
S11303406E016D2F8C2F0E947B03DF91CF91089556
S11303500E946B000E94470180E090E008951F9284
S11303600F920FB60F9211242F933F934F935F93E5
S11303706F937F938F939F93AF93BF93EF93FF9369
S1130380E0917400F0917500309709F00995FF91A0
S1130390EF91BF91AF919F918F917F916F915F91F9
S11303A04F913F912F910F900FBE0F901F90189572
S11303B01F920F920FB60F9211242F933F934F93D6
S11303C05F936F937F938F939F93AF93BF93EF93B9
S11303D0FF93E0917400F0917500309709F009954E
S11303E0FF91EF91BF91AF919F918F917F916F9109
S11303F05F914F913F912F910F900FBE0F901F90DF
S113040018951F920F920FB60F9211242F933F93BA
S11304104F935F936F937F938F939F93AF93BF9308
S1130420EF93FF93E0917400F0917500309709F019
S11304300995FF91EF91BF91AF919F918F917F911A
S11304406F915F914F913F912F910F900FBE0F903D
S11304501F901895FC0190819130D1F018F09230E2
S113046069F108958181813021F485B7836085BF66
S11304700BC0811104C085B7826085BF05C082307E
S113048019F485B7816085BF8BB780648BBF0895ED
S11304908181813021F485B78C6085BF0BC08111C7
S11304A004C085B7886085BF05C0823019F485B75C
S11304B0846085BF8BB780688BBF0895818181304C
S11304C019F484B7806484BF8BB780628BBF0895AE
S11304D090937500809374000895623451F118F478
S11304E0613441F00895633409F442C0643409F47A
S11304F05DC0089541110DC04AB321E030E0B90157
S113050002C0660F771F8A95E2F7CB0184238ABB6A
S11305100895413009F067C04AB321E030E0B901E1
S113052002C0660F771F8A95E2F7CB01842B8ABB42
S1130530089541110DC047B321E030E0B90102C074
S1130540660F771F8A95E2F7CB01842387BB089552
S1130550413009F048C047B321E030E0B90102C09E
S1130560660F771F8A95E2F7CB01842B87BB08952A
S113057041110DC044B321E030E0B90102C0660F5F
S1130580771F8A95E2F7CB01842384BB0895413019
S113059051F544B321E030E0B90102C0660F771F82
S11305A08A95E2F7CB01842B84BB089541110DC0D9
S11305B041B321E030E0B90102C0660F771F8A958C
S11305C0E2F7CB01842381BB0895413061F441B348
S11305D021E030E0B90102C0660F771F8A95E2F787
S11305E0CB01842B81BB0895623451F118F461343A
S11305F041F00895633409F442C0643409F45DC0E1
S1130600089541110DC04BB321E030E0B90102C09F
S1130610660F771F8A95E2F7CB0184238BBB08957D
S1130620413009F067C04BB321E030E0B90102C0AA
S1130630660F771F8A95E2F7CB01842B8BBB089555
S113064041110DC048B321E030E0B90102C0660F8A
S1130650771F8A95E2F7CB01842388BB0895413044
S113066009F048C048B321E030E0B90102C0660F88
S1130670771F8A95E2F7CB01842B88BB089541113B
S11306800DC045B321E030E0B90102C0660F771F09
S11306908A95E2F7CB01842385BB0895413051F557
S11306A045B321E030E0B90102C0660F771F8A9597
S11306B0E2F7CB01842B85BB089541110DC042B3F1
S11306C021E030E0B90102C0660F771F8A95E2F796
S11306D0CB01842382BB0895413061F442B321E00D
S11306E030E0B90102C0660F771F8A95E2F7CB01AB
S11306F0842B82BB08956234B1F018F4613431F074
S113070008956334E9F0643441F108954BB321E072
S113071030E0B90102C0660F771F8A95E2F7CB017A
S113072084278BBB089548B321E030E0B90102C0AF
S1130730660F771F8A95E2F7CB01842788BB08955B
S113074045B321E030E0B90102C0660F771F8A95F6
S1130750E2F7CB01842785BB089542B321E030E062
S1130760B90102C0660F771F8A95E2F7CB0184278F
S113077082BB08951F920F920FB60F9211242F93EC
S11307803F934F935F936F937F938F939F93AF9315
S1130790BF93EF93FF93E0917600F0917700309749
S11307A009F00995FF91EF91BF91AF919F918F91BE
S11307B07F916F915F914F913F912F910F900FBE59
S11307C00F901F9018951F920F920FB60F9211243D
S11307D02F933F934F935F936F937F938F939F9345
S11307E0AF93BF93EF93FF93E0917600F09177007E
S11307F0309709F00995FF91EF91BF91AF919F91C7
S11308008F917F916F915F914F913F912F910F90B5
S11308100FBE0F901F9018951F920F920FB60F9254
S113082011242F933F934F935F936F937F938F93F1
S11308309F93AF93BF93EF93FF93E0917600F09172
S11308407700309709F00995FF91EF91BF91AF912F
S11308509F918F917F916F915F914F913F912F91D4
S11308600F900FBE0F901F9018951F920F920FB606
S11308700F9211242F933F934F935F936F937F9322
S11308808F939F93AF93BF93EF93FF93E091760081
S1130890F0917700309709F00995FF91EF91BF919E
S11308A0AF919F918F917F916F915F914F913F9104
S11308B02F910F900FBE0F901F9018951F920F92BB
S11308C00FB60F9211242F933F934F935F936F931F
S11308D07F938F939F93AF93BF93EF93FF93E09195
S11308E07600F0917700309709F00995FF91EF9128
S11308F0BF91AF919F918F917F916F915F914F9134
S11309003F912F910F900FBE0F901F9018951F923B
S11309100F920FB60F9211242F933F934F935F932F
S11309206F937F938F939F93AF93BF93EF93FF93B3
S1130930E0917600F0917700309709F00995FF91E6
S1130940EF91BF91AF919F918F917F916F915F9143
S11309504F913F912F910F900FBE0F901F901895BC
S113096090937700809376000895FC01858181300F
S113097029F120F0823009F44BC00895808182BFB0
S113098083B7806883BF8681813049F482818CBFBC
S113099083B7886083BF89B7826089BF08C081112B
S11309A006C083B7877F83BF89B7816089BF93B748
S11309B08481987F8770892B83BF0895808191817A
S11309C09DBD8CBD8FB58C608FBD8681813071F4E7
S11309D0828193819BBD8ABD8EB588608EBD8EB5A4
S11309E08F7E8EBD89B7806189BF0BC0811109C01C
S11309F08EB5877F8EBD8EB58F7E8EBD89B78460A0
S1130A0089BF9EB58481987F8770892B8EBD089598
S1130A10808184BD85B5806885BD8681813049F437
S1130A20828183BD85B5886085BD89B7806889BFAB
S1130A3008C0811106C083B7877F83BF89B78064EC
S1130A4089BF95B58481987F8770892B85BD08956A
S1130A50813051F018F0823079F0089513BE1CBE35
S1130A6089B78C7F89BF08951FBC1EBC1BBC1ABCF0
S1130A7089B78B7E89BF089515BC13BC89B78F7362
S10B0A8089BF0895F894FFCF2B
S1130A88010100001313050101000000E90105013B
S1050A98010057
S9030000FC
