S01C0000547261666669634C696768747350726F6A6563742E7372656307
S11300000C942A000C9446010C946F010C949801F2
S11300100C94B6030C94DF030C9447000C94640313
S11300200C9447000C948D030C9412030C943B0322
S11300300C9447000C9447000C9447000C94470020
S11300400C9447000C9447000C9447000C94470010
S11300500C94470011241FBECFE5D8E0DEBFCDBF0E
S113006010E0A0E6B0E0E8E3F9E002C005900D92EC
S1130070AA36B107D9F720E0AAE6B0E001C01D9284
S1130080AF36B207E1F70E943F010C949A040C9436
S1130090000080916100813019F41092610008958C
S11300A081E080936100089580916A00813019F4A1
S11300B010926A0008958F5F80936A00089560E04B
S11300C081E40E94380161E081E40E94380162E029
S11300D081E40E94380160E082E40E94380161E01A
S11300E082E40E94380162E082E40E9438010895AB
S11300F0CF93DF9300D0CDB7DEB77894198281E037
S11301008A83CE0101960E94C10189E490E00E9495
S1130110FF0140E064E482E00E94040260E081E4C4
S11301200E942A0161E081E40E942A0162E081E4E4
S11301300E942A0160E082E40E942A0161E082E4D4
S11301400E942A0162E082E40E942A010F900F902B
S1130150DF91CF910895CF93DF93CDB7DEB7289782
S11301600FB6F894DEBF0FBECDBF88E0E2E6F0E044
S1130170DE01119601900D928A95E1F784E590E0F5
S11301800E940804CE0101960E940D0480916A0029
S11301908823E1F381E00E94800428960FB6F89446
S11301A0DEBF0FBECDBFDF91CF9108950E945F00E7
S11301B0809161008823C9F18130C1F760E082E455
S11301C00E94310161E081E40E94310181E0809369
S11301D060000E94AB0062E082E40E94310162E0B0
S11301E081E40E94310182E0809360000E94AB00B0
S11301F00E945F001092600061E082E40E9431017D
S113020060E081E40E9431010E94AB0060E082E47E
S11302100E94310161E082E40E94310162E082E4E3
S11302200E9431010E94AB00C1CF0E945F0060E0D8
S113023081E40E94310161E081E40E94310162E0C5
S113024081E40E9431010E94AB000E945F000E9481
S1130250AB00ACCF982F862F41E0692F0E94040297
S11302600895982F862F41E0692F0E948B020895EC
S1130270982F862F40E0692F0E948B0208950E94D8
S113028078000E94D60080E090E008951F920F92BB
S11302900FB60F9211242F933F934F935F936F9355
S11302A07F938F939F93AF93BF93EF93FF93E091CB
S11302B06B00F0916C00309709F00995FF91EF9174
S11302C0BF91AF919F918F917F916F915F914F916A
S11302D03F912F910F900FBE0F901F9018951F9272
S11302E00F920FB60F9211242F933F934F935F9366
S11302F06F937F938F939F93AF93BF93EF93FF93EA
S1130300E0916B00F0916C00309709F00995FF9132
S1130310EF91BF91AF919F918F917F916F915F9179
S11303204F913F912F910F900FBE0F901F901895F2
S11303301F920F920FB60F9211242F933F934F9356
S11303405F936F937F938F939F93AF93BF93EF9339
S1130350FF93E0916B00F0916C00309709F00995E0
S1130360FF91EF91BF91AF919F918F917F916F9189
S11303705F914F913F912F910F900FBE0F901F905F
S11303801895FC0190819130D1F018F0923069F108
S113039008958181813021F485B7836085BF0BC0C6
S11303A0811104C085B7826085BF05C0823019F40D
S11303B085B7816085BF8BB780648BBF08958181C9
S11303C0813021F485B78C6085BF0BC0811104C0D6
S11303D085B7886085BF05C0823019F485B784600D
S11303E085BF8BB780688BBF08958181813019F4F4
S11303F084B7806484BF8BB780628BBF0895909369
S11304006C0080936B000895623451F118F46134E8
S113041041F00895633409F442C0643409F45DC0C2
S1130420089541110DC04AB321E030E0B90102C082
S1130430660F771F8A95E2F7CB0184238ABB089560
S1130440413009F067C04AB321E030E0B90102C08D
S1130450660F771F8A95E2F7CB01842B8ABB089538
S113046041110DC047B321E030E0B90102C0660F6D
S1130470771F8A95E2F7CB01842387BB0895413027
S113048009F048C047B321E030E0B90102C0660F6B
S1130490771F8A95E2F7CB01842B87BB089541111E
S11304A00DC044B321E030E0B90102C0660F771FEC
S11304B08A95E2F7CB01842384BB0895413051F53A
S11304C044B321E030E0B90102C0660F771F8A957A
S11304D0E2F7CB01842B84BB089541110DC041B3D5
S11304E021E030E0B90102C0660F771F8A95E2F778
S11304F0CB01842381BB0895413061F441B321E0F1
S113050030E0B90102C0660F771F8A95E2F7CB018C
S1130510842B81BB0895623451F118F4613441F0A5
S11305200895633409F442C0643409F45DC0089545
S113053041110DC04BB321E030E0B90102C0660F98
S1130540771F8A95E2F7CB0184238BBB0895413052
S113055009F067C04BB321E030E0B90102C0660F77
S1130560771F8A95E2F7CB01842B8BBB0895411149
S11305700DC048B321E030E0B90102C0660F771F17
S11305808A95E2F7CB01842388BB0895413009F0B2
S113059048C048B321E030E0B90102C0660F771FBC
S11305A08A95E2F7CB01842B88BB089541110DC0D5
S11305B045B321E030E0B90102C0660F771F8A9588
S11305C0E2F7CB01842385BB0895413051F545B34F
S11305D021E030E0B90102C0660F771F8A95E2F787
S11305E0CB01842B85BB089541110DC042B321E09A
S11305F030E0B90102C0660F771F8A95E2F7CB019C
S1130600842382BB0895413061F442B321E030E099
S1130610B90102C0660F771F8A95E2F7CB01842BDC
S113062082BB08951F920F920FB60F9211242F933D
S11306303F934F935F936F937F938F939F93AF9366
S1130640BF93EF93FF93E0916D00F0916E003097AC
S113065009F00995FF91EF91BF91AF919F918F910F
S11306607F916F915F914F913F912F910F900FBEAA
S11306700F901F9018951F920F920FB60F9211248E
S11306802F933F934F935F936F937F938F939F9396
S1130690AF93BF93EF93FF93E0916D00F0916E00E1
S11306A0309709F00995FF91EF91BF91AF919F9118
S11306B08F917F916F915F914F913F912F910F9007
S11306C00FBE0F901F9018951F920F920FB60F92A6
S11306D011242F933F934F935F936F937F938F9343
S11306E09F93AF93BF93EF93FF93E0916D00F091CD
S11306F06E00309709F00995FF91EF91BF91AF918A
S11307009F918F917F916F915F914F913F912F9125
S11307100F900FBE0F901F9018951F920F920FB657
S11307200F9211242F933F934F935F936F937F9373
S11307308F939F93AF93BF93EF93FF93E0916D00DB
S1130740F0916E00309709F00995FF91EF91BF91F8
S1130750AF919F918F917F916F915F914F913F9155
S11307602F910F900FBE0F901F9018951F920F920C
S11307700FB60F9211242F933F934F935F936F9370
S11307807F938F939F93AF93BF93EF93FF93E091E6
S11307906D00F0916E00309709F00995FF91EF918B
S11307A0BF91AF919F918F917F916F915F914F9185
S11307B03F912F910F900FBE0F901F9018951F928D
S11307C00F920FB60F9211242F933F934F935F9381
S11307D06F937F938F939F93AF93BF93EF93FF9305
S11307E0E0916D00F0916E00309709F00995FF914A
S11307F0EF91BF91AF919F918F917F916F915F9195
S11308004F913F912F910F900FBE0F901F9018950D
S113081090936E0080936D000895FC018581813072
S113082029F120F0823009F44BC00895808182BF01
S113083083B7806883BF8681813049F482818CBF0D
S113084083B7886083BF89B7826089BF08C081117C
S113085006C083B7877F83BF89B7816089BF93B799
S11308608481987F8770892B83BF089580819181CB
S11308709DBD8CBD8FB58C608FBD8681813071F438
S1130880828193819BBD8ABD8EB588608EBD8EB5F5
S11308908F7E8EBD89B7806189BF0BC0811109C06D
S11308A08EB5877F8EBD8EB58F7E8EBD89B78460F1
S11308B089BF9EB58481987F8770892B8EBD0895EA
S11308C0808184BD85B5806885BD8681813049F489
S11308D0828183BD85B5886085BD89B7806889BFFD
S11308E008C0811106C083B7877F83BF89B780643E
S11308F089BF95B58481987F8770892B85BD0895BC
S1130900813051F018F0823079F0089513BE1CBE86
S113091089B78C7F89BF08951FBC1EBC1BBC1ABC41
S113092089B78B7E89BF089515BC13BC89B78F73B3
S10B093089BF0895F894FFCF7C
S10D09380101000013130501010082
S9030000FC
