:100000000C942A000C9457010C9480010C94A901C3
:100010000C94C7030C94F0030C9447000C947503E4
:100020000C9447000C949E030C9423030C944C03F3
:100030000C9447000C9447000C9447000C94470024
:100040000C9447000C9447000C9447000C94470014
:100050000C94470011241FBECFE5D8E0DEBFCDBF12
:1000600010E0A0E6B0E0EAE5F9E002C005900D92EC
:10007000AA36B107D9F720E0AAE6B0E001C01D9288
:10008000AF36B207E1F70E9450010C94AB040C9418
:10009000000080916A008F5F80936A00089560E09D
:1000A00081E40E94490161E081E40E94490162E02B
:1000B00081E40E94490160E082E40E94490161E01C
:1000C00082E40E94490162E082E40E9449010895AD
:1000D000CF93DF9300D0CDB7DEB77894198281E05B
:1000E0008A83CE0101960E94D20188E091E00E94AD
:1000F000100240E064E482E00E94150260E081E4C6
:100100000E943B0161E081E40E943B0162E081E4E6
:100110000E943B0160E082E40E943B0161E082E4D6
:100120000E943B0162E082E40E943B010F900F902D
:10013000DF91CF910895CF93DF93CDB7DEB72897A6
:100140000FB6F894DEBF0FBECDBF789488E0E1E62D
:10015000F0E0DE01119601900D928A95E1F789E4B5
:1001600090E00E941904CE0101960E941E04809125
:100170006A008130E1F710926A000E94910428968B
:100180000FB6F894DEBF0FBECDBFDF91CF910895BB
:100190000E944F008091600081110BC060E081E4FB
:1001A0000E94420161E082E40E9442010E949B00A1
:1001B0001DC081508230D0F461E081E40E94420190
:1001C00062E081E40E94420162E082E40E94420116
:1001D0000E949B000E944F0060E081E40E94420167
:1001E00061E082E40E9442010E949B000E944F0055
:1001F00062E081E40E94420160E081E40E944201E9
:1002000062E082E40E9442010E949B0018950895DA
:100210000E94C80008950E944F0060E082E40E949E
:10022000420161E081E40E94420181E0809360002C
:100230000E949B0062E082E40E94420162E081E44D
:100240000E94420182E0809360000E949B000E9415
:100250004F001092600061E082E40E94420160E081
:1002600081E40E9442010E949B000E944F00089579
:100270000E940B01FDCF982F862F41E0692F0E942D
:1002800015020895982F862F41E0692F0E949C0245
:100290000895982F862F40E0692F0E949C020895B0
:1002A0000E9468000E94380180E090E008951F924B
:1002B0000F920FB60F9211242F933F934F935F939A
:1002C0006F937F938F939F93AF93BF93EF93FF931E
:1002D000E0916B00F0916C00309709F00995FF9167
:1002E000EF91BF91AF919F918F917F916F915F91AE
:1002F0004F913F912F910F900FBE0F901F90189527
:100300001F920F920FB60F9211242F933F934F938A
:100310005F936F937F938F939F93AF93BF93EF936D
:10032000FF93E0916B00F0916C00309709F0099514
:10033000FF91EF91BF91AF919F918F917F916F91BD
:100340005F914F913F912F910F900FBE0F901F9093
:1003500018951F920F920FB60F9211242F933F936F
:100360004F935F936F937F938F939F93AF93BF93BD
:10037000EF93FF93E0916B00F0916C00309709F0E0
:100380000995FF91EF91BF91AF919F918F917F91CF
:100390006F915F914F913F912F910F900FBE0F90F2
:1003A0001F901895FC0190819130D1F018F0923097
:1003B00069F108958181813021F485B7836085BF1B
:1003C0000BC0811104C085B7826085BF05C0823033
:1003D00019F485B7816085BF8BB780648BBF0895A2
:1003E0008181813021F485B78C6085BF0BC081117C
:1003F00004C085B7886085BF05C0823019F485B711
:10040000846085BF8BB780688BBF08958181813000
:1004100019F484B7806484BF8BB780628BBF089562
:1004200090936C0080936B000895623451F118F43E
:10043000613441F00895633409F442C0643409F42E
:100440005DC0089541110DC04AB321E030E0B9010B
:1004500002C0660F771F8A95E2F7CB0184238ABB1F
:100460000895413009F067C04AB321E030E0B90196
:1004700002C0660F771F8A95E2F7CB01842B8ABBF7
:10048000089541110DC047B321E030E0B90102C029
:10049000660F771F8A95E2F7CB01842387BB089507
:1004A000413009F048C047B321E030E0B90102C053
:1004B000660F771F8A95E2F7CB01842B87BB0895DF
:1004C00041110DC044B321E030E0B90102C0660F14
:1004D000771F8A95E2F7CB01842384BB08954130CE
:1004E00051F544B321E030E0B90102C0660F771F37
:1004F0008A95E2F7CB01842B84BB089541110DC08E
:1005000041B321E030E0B90102C0660F771F8A9540
:10051000E2F7CB01842381BB0895413061F441B3FC
:1005200021E030E0B90102C0660F771F8A95E2F73B
:10053000CB01842B81BB0895623451F118F46134EE
:1005400041F00895633409F442C0643409F45DC095
:10055000089541110DC04BB321E030E0B90102C054
:10056000660F771F8A95E2F7CB0184238BBB089532
:10057000413009F067C04BB321E030E0B90102C05F
:10058000660F771F8A95E2F7CB01842B8BBB08950A
:1005900041110DC048B321E030E0B90102C0660F3F
:1005A000771F8A95E2F7CB01842388BB08954130F9
:1005B00009F048C048B321E030E0B90102C0660F3D
:1005C000771F8A95E2F7CB01842B88BB08954111F0
:1005D0000DC045B321E030E0B90102C0660F771FBE
:1005E0008A95E2F7CB01842385BB0895413051F50C
:1005F00045B321E030E0B90102C0660F771F8A954C
:10060000E2F7CB01842B85BB089541110DC042B3A5
:1006100021E030E0B90102C0660F771F8A95E2F74A
:10062000CB01842382BB0895413061F442B321E0C1
:1006300030E0B90102C0660F771F8A95E2F7CB015F
:10064000842B82BB08951F920F920FB60F92112434
:100650002F933F934F935F936F937F938F939F93CA
:10066000AF93BF93EF93FF93E0916D00F0916E0015
:10067000309709F00995FF91EF91BF91AF919F914C
:100680008F917F916F915F914F913F912F910F903B
:100690000FBE0F901F9018951F920F920FB60F92DA
:1006A00011242F933F934F935F936F937F938F9377
:1006B0009F93AF93BF93EF93FF93E0916D00F09101
:1006C0006E00309709F00995FF91EF91BF91AF91BE
:1006D0009F918F917F916F915F914F913F912F915A
:1006E0000F900FBE0F901F9018951F920F920FB68C
:1006F0000F9211242F933F934F935F936F937F93A8
:100700008F939F93AF93BF93EF93FF93E0916D000F
:10071000F0916E00309709F00995FF91EF91BF912C
:10072000AF919F918F917F916F915F914F913F9189
:100730002F910F900FBE0F901F9018951F920F9240
:100740000FB60F9211242F933F934F935F936F93A4
:100750007F938F939F93AF93BF93EF93FF93E0911A
:100760006D00F0916E00309709F00995FF91EF91BF
:10077000BF91AF919F918F917F916F915F914F91B9
:100780003F912F910F900FBE0F901F9018951F92C1
:100790000F920FB60F9211242F933F934F935F93B5
:1007A0006F937F938F939F93AF93BF93EF93FF9339
:1007B000E0916D00F0916E00309709F00995FF917E
:1007C000EF91BF91AF919F918F917F916F915F91C9
:1007D0004F913F912F910F900FBE0F901F90189542
:1007E0001F920F920FB60F9211242F933F934F93A6
:1007F0005F936F937F938F939F93AF93BF93EF9389
:10080000FF93E0916D00F0916E00309709F009952B
:10081000FF91EF91BF91AF919F918F917F916F91D8
:100820005F914F913F912F910F900FBE0F901F90AE
:10083000189590936E0080936D000895FC0185815A
:10084000813029F120F0823009F44BC00895808175
:1008500082BF83B7806883BF8681813049F48281FB
:100860008CBF83B7886083BF89B7826089BF08C0A7
:10087000811106C083B7877F83BF89B7816089BF35
:1008800093B78481987F8770892B83BF0895808177
:1008900091819DBD8CBD8FB58C608FBD868181306F
:1008A00071F4828193819BBD8ABD8EB588608EBDB7
:1008B0008EB58F7E8EBD89B7806189BF0BC08111D7
:1008C00009C08EB5877F8EBD8EB58F7E8EBD89B7F0
:1008D000846089BF9EB58481987F8770892B8EBD87
:1008E0000895808184BD85B5806885BD868181300D
:1008F00049F4828183BD85B5886085BD89B78068EC
:1009000089BF08C0811106C083B7877F83BF89B7BD
:10091000806489BF95B58481987F8770892B85BD58
:100920000895813051F018F0823079F0089513BEA7
:100930001CBE89B78C7F89BF08951FBC1EBC1BBC21
:100940001ABC89B78B7E89BF089515BC13BC89B7C3
:0A0950008F7389BF0895F894FFCF5C
:0A095A000100001313050101000065
:00000001FF
